{
  "contractName": "Event",
  "abi": [
    {
      "constant": true,
      "inputs": [],
      "name": "ticketAmount",
      "outputs": [
        {
          "name": "",
          "type": "uint256"
        }
      ],
      "payable": false,
      "stateMutability": "view",
      "type": "function"
    },
    {
      "constant": true,
      "inputs": [
        {
          "name": "",
          "type": "address"
        }
      ],
      "name": "ticketPurchase",
      "outputs": [
        {
          "name": "",
          "type": "uint256"
        }
      ],
      "payable": false,
      "stateMutability": "view",
      "type": "function"
    },
    {
      "constant": true,
      "inputs": [],
      "name": "eventDeadline",
      "outputs": [
        {
          "name": "",
          "type": "uint256"
        }
      ],
      "payable": false,
      "stateMutability": "view",
      "type": "function"
    },
    {
      "constant": true,
      "inputs": [],
      "name": "eventName",
      "outputs": [
        {
          "name": "",
          "type": "string"
        }
      ],
      "payable": false,
      "stateMutability": "view",
      "type": "function"
    },
    {
      "constant": true,
      "inputs": [
        {
          "name": "",
          "type": "address"
        }
      ],
      "name": "amount",
      "outputs": [
        {
          "name": "",
          "type": "uint256"
        }
      ],
      "payable": false,
      "stateMutability": "view",
      "type": "function"
    },
    {
      "constant": true,
      "inputs": [],
      "name": "availableTicket",
      "outputs": [
        {
          "name": "",
          "type": "uint256"
        }
      ],
      "payable": false,
      "stateMutability": "view",
      "type": "function"
    },
    {
      "inputs": [
        {
          "name": "nameOfEvent",
          "type": "string"
        },
        {
          "name": "ticketCount",
          "type": "uint256"
        },
        {
          "name": "ticketCharges",
          "type": "uint256"
        },
        {
          "name": "durationInMinute",
          "type": "uint256"
        },
        {
          "name": "benificiaryAddress",
          "type": "address"
        }
      ],
      "payable": false,
      "stateMutability": "nonpayable",
      "type": "constructor"
    },
    {
      "constant": false,
      "inputs": [],
      "name": "getState",
      "outputs": [
        {
          "name": "",
          "type": "string"
        }
      ],
      "payable": false,
      "stateMutability": "nonpayable",
      "type": "function"
    },
    {
      "constant": false,
      "inputs": [
        {
          "name": "numberOfTicket",
          "type": "uint256"
        }
      ],
      "name": "purchaseTicket",
      "outputs": [],
      "payable": true,
      "stateMutability": "payable",
      "type": "function"
    },
    {
      "constant": false,
      "inputs": [],
      "name": "finishEvent",
      "outputs": [],
      "payable": false,
      "stateMutability": "nonpayable",
      "type": "function"
    },
    {
      "constant": false,
      "inputs": [],
      "name": "collectAmount",
      "outputs": [],
      "payable": false,
      "stateMutability": "nonpayable",
      "type": "function"
    },
    {
      "constant": false,
      "inputs": [],
      "name": "cancelTicket",
      "outputs": [],
      "payable": false,
      "stateMutability": "nonpayable",
      "type": "function"
    },
    {
      "constant": false,
      "inputs": [],
      "name": "remove",
      "outputs": [],
      "payable": false,
      "stateMutability": "nonpayable",
      "type": "function"
    }
  ],
  "bytecode": "0x60806040523480156200001157600080fd5b506040516200174338038062001743833981018060405262000037919081019062000237565b84600090805190602001906200004f929190620000fe565b508360018190555060018302600281905550603c82026200007e620000f6640100000000026401000000009004565b016003819055506000600460146101000a81548160ff02191690836003811115620000a557fe5b021790555033600760006101000a81548173ffffffffffffffffffffffffffffffffffffffff021916908373ffffffffffffffffffffffffffffffffffffffff1602179055505050505050620003a1565b600042905090565b828054600181600116156101000203166002900490600052602060002090601f016020900481019282601f106200014157805160ff191683800117855562000172565b8280016001018555821562000172579182015b828111156200017157825182559160200191906001019062000154565b5b50905062000181919062000185565b5090565b620001aa91905b80821115620001a65760008160009055506001016200018c565b5090565b90565b6000620001bb82516200034d565b905092915050565b600082601f8301121515620001d757600080fd5b8151620001ee620001e88262000300565b620002d2565b915080825260208301602083018583830111156200020b57600080fd5b620002188382846200036b565b50505092915050565b60006200022f825162000361565b905092915050565b600080600080600060a086880312156200025057600080fd5b600086015167ffffffffffffffff8111156200026b57600080fd5b6200027988828901620001c3565b95505060206200028c8882890162000221565b94505060406200029f8882890162000221565b9350506060620002b28882890162000221565b9250506080620002c588828901620001ad565b9150509295509295909350565b6000604051905081810181811067ffffffffffffffff82111715620002f657600080fd5b8060405250919050565b600067ffffffffffffffff8211156200031857600080fd5b601f19601f8301169050602081019050919050565b600073ffffffffffffffffffffffffffffffffffffffff82169050919050565b60006200035a826200032d565b9050919050565b6000819050919050565b60005b838110156200038b5780820151818401526020810190506200036e565b838111156200039b576000848401525b50505050565b61139280620003b16000396000f3fe6080604052600436106100ba576000357c0100000000000000000000000000000000000000000000000000000000900463ffffffff1680630ba679c1146100bf5780631865c57d146100ea5780633ed8892c146101155780636b3d9207146101525780637e65b5431461017d5780638043c9c014610194578063a7f43779146101bf578063a94b2291146101d6578063b948348c146101ed578063b9f0bf6614610209578063ca36385c14610246578063f0846d1d1461025d575b600080fd5b3480156100cb57600080fd5b506100d4610288565b6040516100e1919061129d565b60405180910390f35b3480156100f657600080fd5b506100ff61028e565b60405161010c919061113b565b60405180910390f35b34801561012157600080fd5b5061013c60048036036101379190810190610db4565b6102ad565b604051610149919061129d565b60405180910390f35b34801561015e57600080fd5b506101676102c5565b604051610174919061129d565b60405180910390f35b34801561018957600080fd5b506101926102cb565b005b3480156101a057600080fd5b506101a9610439565b6040516101b69190611119565b60405180910390f35b3480156101cb57600080fd5b506101d46104d7565b005b3480156101e257600080fd5b506101eb6105ee565b005b61020760048036036102029190810190610ddd565b61079a565b005b34801561021557600080fd5b50610230600480360361022b9190810190610db4565b61099e565b60405161023d919061129d565b60405180910390f35b34801561025257600080fd5b5061025b6109b6565b005b34801561026957600080fd5b50610272610c17565b60405161027f919061129d565b60405180910390f35b60025481565b60606102a8600460149054906101000a900460ff16610c1d565b905090565b60066020528060005260406000206000915090505481565b60035481565b60008060038111156102d957fe5b600460149054906101000a900460ff1660038111156102f457fe5b141515610336576040517f08c379a000000000000000000000000000000000000000000000000000000000815260040161032d9061127d565b60405180910390fd5b600760009054906101000a900473ffffffffffffffffffffffffffffffffffffffff1673ffffffffffffffffffffffffffffffffffffffff163373ffffffffffffffffffffffffffffffffffffffff161415156103c8576040517f08c379a00000000000000000000000000000000000000000000000000000000081526004016103bf9061119d565b60405180910390fd5b6103d0610d71565b151515610412576040517f08c379a00000000000000000000000000000000000000000000000000000000081526004016104099061117d565b60405180910390fd5b6002600460146101000a81548160ff0219169083600381111561043157fe5b021790555050565b60008054600181600116156101000203166002900480601f0160208091040260200160405190810160405280929190818152602001828054600181600116156101000203166002900480156104cf5780601f106104a4576101008083540402835291602001916104cf565b820191906000526020600020905b8154815290600101906020018083116104b257829003601f168201915b505050505081565b600760009054906101000a900473ffffffffffffffffffffffffffffffffffffffff1673ffffffffffffffffffffffffffffffffffffffff163373ffffffffffffffffffffffffffffffffffffffff16141515610569576040517f08c379a0000000000000000000000000000000000000000000000000000000008152600401610560906111bd565b60405180910390fd5b610571610d71565b1515156105b3576040517f08c379a00000000000000000000000000000000000000000000000000000000081526004016105aa906111fd565b60405180910390fd5b600460009054906101000a900473ffffffffffffffffffffffffffffffffffffffff1673ffffffffffffffffffffffffffffffffffffffff16ff5b60028060038111156105fc57fe5b600460149054906101000a900460ff16600381111561061757fe5b141515610659576040517f08c379a00000000000000000000000000000000000000000000000000000000081526004016106509061127d565b60405180910390fd5b600760009054906101000a900473ffffffffffffffffffffffffffffffffffffffff1673ffffffffffffffffffffffffffffffffffffffff163373ffffffffffffffffffffffffffffffffffffffff161415156106eb576040517f08c379a00000000000000000000000000000000000000000000000000000000081526004016106e29061125d565b60405180910390fd5b600460009054906101000a900473ffffffffffffffffffffffffffffffffffffffff1673ffffffffffffffffffffffffffffffffffffffff166108fc6008549081150290604051600060405180830381858888f1935050505015610772576003600460146101000a81548160ff0219169083600381111561076857fe5b0217905550610797565b6001600460146101000a81548160ff0219169083600381111561079157fe5b02179055505b50565b60008060038111156107a857fe5b600460149054906101000a900460ff1660038111156107c357fe5b141515610805576040517f08c379a00000000000000000000000000000000000000000000000000000000081526004016107fc9061127d565b60405180910390fd5b61080d610d71565b151561084e576040517f08c379a00000000000000000000000000000000000000000000000000000000081526004016108459061121d565b60405180910390fd5b6000826001540312151515610898576040517f08c379a000000000000000000000000000000000000000000000000000000000815260040161088f906111dd565b60405180910390fd5b3482600254021415156108e0576040517f08c379a00000000000000000000000000000000000000000000000000000000081526004016108d79061115d565b60405180910390fd5b34600560003373ffffffffffffffffffffffffffffffffffffffff1673ffffffffffffffffffffffffffffffffffffffff1681526020019081526020016000206000828254019250508190555081600660003373ffffffffffffffffffffffffffffffffffffffff1673ffffffffffffffffffffffffffffffffffffffff1681526020019081526020016000206000828254019250508190555034600860008282540192505081905550816001600082825403925050819055505050565b60056020528060005260406000206000915090505481565b60008060038111156109c457fe5b600460149054906101000a900460ff1660038111156109df57fe5b141515610a21576040517f08c379a0000000000000000000000000000000000000000000000000000000008152600401610a189061127d565b60405180910390fd5b6000600560003373ffffffffffffffffffffffffffffffffffffffff1673ffffffffffffffffffffffffffffffffffffffff16815260200190815260200160002054111515610aa5576040517f08c379a0000000000000000000000000000000000000000000000000000000008152600401610a9c9061123d565b60405180910390fd5b6000600560003373ffffffffffffffffffffffffffffffffffffffff1673ffffffffffffffffffffffffffffffffffffffff1681526020019081526020016000205490506000600560003373ffffffffffffffffffffffffffffffffffffffff1673ffffffffffffffffffffffffffffffffffffffff168152602001908152602001600020819055506000600660003373ffffffffffffffffffffffffffffffffffffffff1673ffffffffffffffffffffffffffffffffffffffff168152602001908152602001600020549050806001600082825401925050819055503373ffffffffffffffffffffffffffffffffffffffff166108fc839081150290604051600060405180830381858888f193505050501515610c12578060016000828254039250508190555081600560003373ffffffffffffffffffffffffffffffffffffffff1673ffffffffffffffffffffffffffffffffffffffff168152602001908152602001600020819055505b505050565b60015481565b606060006003811115610c2c57fe5b826003811115610c3857fe5b1415610c7b576040805190810160405280600681526020017f41637469766500000000000000000000000000000000000000000000000000008152509050610d6c565b60016003811115610c8857fe5b826003811115610c9457fe5b1415610cd7576040805190810160405280600681526020017f4661696c656400000000000000000000000000000000000000000000000000008152509050610d6c565b60026003811115610ce457fe5b826003811115610cf057fe5b1415610d33576040805190810160405280600981526020017f436f6d706c6574656400000000000000000000000000000000000000000000008152509050610d6c565b6040805190810160405280600781526020017f506169644f75740000000000000000000000000000000000000000000000000081525090505b919050565b6000600354610d7e610d84565b10905090565b600042905090565b6000610d9882356112f8565b905092915050565b6000610dac823561130a565b905092915050565b600060208284031215610dc657600080fd5b6000610dd484828501610d8c565b91505092915050565b600060208284031215610def57600080fd5b6000610dfd84828501610da0565b91505092915050565b6000610e11826112c3565b808452610e25816020860160208601611314565b610e2e81611347565b602085010191505092915050565b6000610e47826112b8565b808452610e5b816020860160208601611314565b610e6481611347565b602085010191505092915050565b6000601a82527f506c656173652070726f766964652066756c6c20616d6f756e740000000000006020830152604082019050919050565b6000602182527f43616e6e6f742066696e697368204576656e74206265666f72652074696d696e60208301527f67000000000000000000000000000000000000000000000000000000000000006040830152606082019050919050565b6000601b82527f4f6e6c79206f776e65722063616e206368616e676520737461746500000000006020830152604082019050919050565b6000601e82527f4f6e6c79206f776e65722063616e2072656d6f766520636f6e747261637400006020830152604082019050919050565b6000600b82527f5469636b6574206f7574200000000000000000000000000000000000000000006020830152604082019050919050565b6000602282527f43616e27742072656d6f7665206265666f7265206576656e7420446561646c6960208301527f6e650000000000000000000000000000000000000000000000000000000000006040830152606082019050919050565b6000602b82527f596f7520617265204c6174652e20426f6f6b696e67206e6f7420617661696c6160208301527f626c6520616e796d6f72650000000000000000000000000000000000000000006040830152606082019050919050565b6000601382527f4e6f207469636b657420707572636861736573000000000000000000000000006020830152604082019050919050565b6000601d82527f4f6e6c79206f776e65722063616e20636f6c6c65637420616d6f756e740000006020830152604082019050919050565b6000600c82527f496e76616c6964537461746500000000000000000000000000000000000000006020830152604082019050919050565b611113816112ee565b82525050565b600060208201905081810360008301526111338184610e3c565b905092915050565b600060208201905081810360008301526111558184610e06565b905092915050565b6000602082019050818103600083015261117681610e72565b9050919050565b6000602082019050818103600083015261119681610ea9565b9050919050565b600060208201905081810360008301526111b681610f06565b9050919050565b600060208201905081810360008301526111d681610f3d565b9050919050565b600060208201905081810360008301526111f681610f74565b9050919050565b6000602082019050818103600083015261121681610fab565b9050919050565b6000602082019050818103600083015261123681611008565b9050919050565b6000602082019050818103600083015261125681611065565b9050919050565b600060208201905081810360008301526112768161109c565b9050919050565b60006020820190508181036000830152611296816110d3565b9050919050565b60006020820190506112b2600083018461110a565b92915050565b600081519050919050565b600081519050919050565b600073ffffffffffffffffffffffffffffffffffffffff82169050919050565b6000819050919050565b6000611303826112ce565b9050919050565b6000819050919050565b60005b83811015611332578082015181840152602081019050611317565b83811115611341576000848401525b50505050565b6000601f19601f830116905091905056fea265627a7a7230582065f1ba3d791a8d6bcddc726c1600a25ca8c1410b0c3a9e80cff93f41aeda16896c6578706572696d656e74616cf50037",
  "source": "pragma solidity >=0.4.21 <0.7.0;\npragma experimental ABIEncoderV2;\ncontract Event {\n    \n    enum State { Active ,Failed , Completed, PaidOut}\n    string public eventName;\n    uint public availableTicket;\n    uint public  ticketAmount;\n    uint public eventDeadline;\n    address payable  eventBenificiary;\n    State  state;\n    mapping(address => uint) public amount;\n    mapping(address => uint) public ticketPurchase;\n    address owner;\n    uint amountCollected;\n    \n    \n    constructor(string memory nameOfEvent, uint ticketCount, uint ticketCharges , uint durationInMinute, address benificiaryAddress) public {\n        eventName = nameOfEvent;\n        availableTicket = ticketCount;\n        ticketAmount = ticketCharges * 1 wei ;\n        eventDeadline = currentTime() + durationInMinute * 1 minutes;\n        state = State.Active;\n        owner =msg.sender; \n    }\n    \n    function checkState(State pos) internal returns(string memory){\n        if(pos==State.Active){ return \"Active\";}\n        else if(pos==State.Failed){ return \"Failed\";}\n        else if(pos==State.Completed){ return \"Completed\";}\n        else {return \"PaidOut\";}\n    }\n    \n    function getState() public  returns(string memory){\n        return checkState(state);\n    }\n\n    function currentTime() internal view returns(uint){\n        return now;\n    }\n    \n    modifier inState(State expectedState){\n        require(state==expectedState,\"InvalidState\");\n        _;\n    }\n    \n    function purchaseTicket(uint numberOfTicket) public payable inState(State.Active){\n        \n        require(beforeDeadline(),\"You are Late. Booking not available anymore\");\n        require(int(availableTicket - numberOfTicket) >= 0 ,\"Ticket out \" );\n        require((ticketAmount * numberOfTicket) == msg.value,\"Please provide full amount\");\n        \n        amount[msg.sender]+=msg.value;\n        ticketPurchase[msg.sender]+= numberOfTicket;\n        amountCollected += msg.value;\n        availableTicket -= numberOfTicket;\n        \n        \n        \n    }\n    \n    function beforeDeadline() internal view returns(bool) {\n          return currentTime() < eventDeadline ;\n     }\n    \n    function finishEvent() public inState(State.Active) {\n        require(msg.sender==owner,\"Only owner can change state\");\n        require(!beforeDeadline(),\"Cannot finish Event before timing\");\n        state = State.Completed;\n    }\n    \n    function collectAmount() public inState(State.Completed) {\n        require(msg.sender==owner,\"Only owner can collect amount\");\n        if(eventBenificiary.send(amountCollected)){\n            state = State.PaidOut;\n        }\n        else{\n            state = State.Failed;\n        }\n        \n    }\n    \n    function cancelTicket() public inState(State.Active){\n        require(amount[msg.sender] > 0, \"No ticket purchases\");\n        \n        uint ticketValues = amount[msg.sender];\n        amount[msg.sender] = 0;\n        uint temp = ticketPurchase[msg.sender];\n        availableTicket+=temp;\n        if(!msg.sender.send(ticketValues)){\n            availableTicket-=temp;\n            amount[msg.sender] = ticketValues;\n        }\n        \n    }\n    \n    function remove() public {\n        require(msg.sender==owner,\"Only owner can remove contract\");\n        require(!beforeDeadline(),\"Can't remove before event Deadline\");\n        selfdestruct(eventBenificiary);\n    }\n}    \n\n",
  "sourcePath": "/home/nishchal/Event/contracts/Event.sol",
  "compiler": {
    "name": "solc",
    "version": "0.5.0+commit.1d4f565a.Emscripten.clang"
  },
  "schemaVersion": "3.0.1",
  "updatedAt": "2020-06-30T06:05:24.746Z",
  "devdoc": {
    "methods": {}
  },
  "userdoc": {
    "methods": {}
  }
}